{
  "contractName": "SupplyChain",
  "abi": [
    {
      "inputs": [],
      "payable": false,
      "stateMutability": "nonpayable",
      "type": "constructor",
      "signature": "constructor"
    },
    {
      "anonymous": false,
      "inputs": [
        {
          "indexed": false,
          "name": "index",
          "type": "uint256"
        }
      ],
      "name": "Added",
      "type": "event",
      "signature": "0x64a55044d1f2eddebe1b90e8e2853e8e96931cefadbfa0b2ceb34bee36061941"
    },
    {
      "constant": true,
      "inputs": [
        {
          "name": "_a",
          "type": "string"
        },
        {
          "name": "_b",
          "type": "string"
        }
      ],
      "name": "concat",
      "outputs": [
        {
          "name": "",
          "type": "string"
        }
      ],
      "payable": false,
      "stateMutability": "pure",
      "type": "function",
      "signature": "0x89c19ddb"
    },
    {
      "constant": false,
      "inputs": [
        {
          "name": "_text",
          "type": "string"
        },
        {
          "name": "_date",
          "type": "string"
        }
      ],
      "name": "newItem",
      "outputs": [
        {
          "name": "",
          "type": "bool"
        }
      ],
      "payable": false,
      "stateMutability": "nonpayable",
      "type": "function",
      "signature": "0xa3d835c0"
    },
    {
      "constant": false,
      "inputs": [
        {
          "name": "_productId",
          "type": "uint256"
        },
        {
          "name": "info",
          "type": "string"
        }
      ],
      "name": "addState",
      "outputs": [
        {
          "name": "",
          "type": "string"
        }
      ],
      "payable": false,
      "stateMutability": "nonpayable",
      "type": "function",
      "signature": "0x453bccb6"
    },
    {
      "constant": true,
      "inputs": [
        {
          "name": "_productId",
          "type": "uint256"
        }
      ],
      "name": "searchProduct",
      "outputs": [
        {
          "name": "",
          "type": "string"
        }
      ],
      "payable": false,
      "stateMutability": "view",
      "type": "function",
      "signature": "0x3cde01b5"
    },
    {
      "constant": true,
      "inputs": [],
      "name": "sayHello",
      "outputs": [
        {
          "name": "",
          "type": "string"
        }
      ],
      "payable": false,
      "stateMutability": "pure",
      "type": "function",
      "signature": "0xef5fb05b"
    },
    {
      "constant": true,
      "inputs": [],
      "name": "getProductId",
      "outputs": [
        {
          "name": "",
          "type": "uint256"
        }
      ],
      "payable": false,
      "stateMutability": "view",
      "type": "function",
      "signature": "0x7ac87732"
    }
  ],
  "bytecode": "0x6080604052600060025534801561001557600080fd5b50610f94806100256000396000f3fe608060405260043610610078576000357c0100000000000000000000000000000000000000000000000000000000900463ffffffff1680633cde01b51461007d578063453bccb6146101315780637ac877321461027c57806389c19ddb146102a7578063a3d835c01461047f578063ef5fb05b146105f6575b600080fd5b34801561008957600080fd5b506100b6600480360360208110156100a057600080fd5b8101908080359060200190929190505050610686565b6040518080602001828103825283818151815260200191508051906020019080838360005b838110156100f65780820151818401526020810190506100db565b50505050905090810190601f1680156101235780820380516001836020036101000a031916815260200191505b509250505060405180910390f35b34801561013d57600080fd5b506102016004803603604081101561015457600080fd5b81019080803590602001909291908035906020019064010000000081111561017b57600080fd5b82018360208201111561018d57600080fd5b803590602001918460018302840111640100000000831117156101af57600080fd5b91908080601f016020809104026020016040519081016040528093929190818152602001838380828437600081840152601f19601f8201169050808301925050505050505091929192905050506109ce565b6040518080602001828103825283818151815260200191508051906020019080838360005b83811015610241578082015181840152602081019050610226565b50505050905090810190601f16801561026e5780820380516001836020036101000a031916815260200191505b509250505060405180910390f35b34801561028857600080fd5b50610291610af5565b6040518082815260200191505060405180910390f35b3480156102b357600080fd5b50610404600480360360408110156102ca57600080fd5b81019080803590602001906401000000008111156102e757600080fd5b8201836020820111156102f957600080fd5b8035906020019184600183028401116401000000008311171561031b57600080fd5b91908080601f016020809104026020016040519081016040528093929190818152602001838380828437600081840152601f19601f8201169050808301925050505050505091929192908035906020019064010000000081111561037e57600080fd5b82018360208201111561039057600080fd5b803590602001918460018302840111640100000000831117156103b257600080fd5b91908080601f016020809104026020016040519081016040528093929190818152602001838380828437600081840152601f19601f820116905080830192505050505050509192919290505050610aff565b6040518080602001828103825283818151815260200191508051906020019080838360005b83811015610444578082015181840152602081019050610429565b50505050905090810190601f1680156104715780820380516001836020036101000a031916815260200191505b509250505060405180910390f35b34801561048b57600080fd5b506105dc600480360360408110156104a257600080fd5b81019080803590602001906401000000008111156104bf57600080fd5b8201836020820111156104d157600080fd5b803590602001918460018302840111640100000000831117156104f357600080fd5b91908080601f016020809104026020016040519081016040528093929190818152602001838380828437600081840152601f19601f8201169050808301925050505050505091929192908035906020019064010000000081111561055657600080fd5b82018360208201111561056857600080fd5b8035906020019184600183028401116401000000008311171561058a57600080fd5b91908080601f016020809104026020016040519081016040528093929190818152602001838380828437600081840152601f19601f820116905080830192505050505050509192919290505050610cd2565b604051808215151515815260200191505060405180910390f35b34801561060257600080fd5b5061060b610dd6565b6040518080602001828103825283818151815260200191508051906020019080838360005b8381101561064b578082015181840152602081019050610630565b50505050905090810190601f1680156106785780820380516001836020036101000a031916815260200191505b509250505060405180910390f35b6060600254821115151561069957600080fd5b60606040805190810160405280600e81526020017f50726f64756374204e616d653a20000000000000000000000000000000000000815250905061078a816000808681526020019081526020016000206001018054600181600116156101000203166002900480601f0160208091040260200160405190810160405280929190818152602001828054600181600116156101000203166002900480156107805780601f1061075557610100808354040283529160200191610780565b820191906000526020600020905b81548152906001019060200180831161076357829003601f168201915b5050505050610aff565b90506107cb816040805190810160405280601681526020017f3c62723e4d616e756661637475726520446174653a2000000000000000000000815250610aff565b9050610884816000808681526020019081526020016000206003018054600181600116156101000203166002900480601f01602080910402602001604051908101604052809291908181526020018280546001816001161561010002031660029004801561087a5780601f1061084f5761010080835404028352916020019161087a565b820191906000526020600020905b81548152906001019060200180831161085d57829003601f168201915b5050505050610aff565b905060008090505b600080858152602001908152602001600020600401548110156109c4576108e8826040805190810160405280601881526020017f3c62723e57617265686f757365204c6f636174696f6e3a200000000000000000815250610aff565b91506109b58260008087815260200190815260200160002060050160008481526020019081526020016000206000018054600181600116156101000203166002900480601f0160208091040260200160405190810160405280929190818152602001828054600181600116156101000203166002900480156109ab5780601f10610980576101008083540402835291602001916109ab565b820191906000526020600020905b81548152906001019060200180831161098e57829003601f168201915b5050505050610aff565b9150808060010191505061088c565b5080915050919050565b606060025483111515156109e157600080fd5b6109e9610e13565b60408051908101604052808481526020013373ffffffffffffffffffffffffffffffffffffffff1681525090508060008086815260200190815260200160002060050160008060008881526020019081526020016000206004015481526020019081526020016000206000820151816000019080519060200190610a6e929190610e43565b5060208201518160010160006101000a81548173ffffffffffffffffffffffffffffffffffffffff021916908373ffffffffffffffffffffffffffffffffffffffff16021790555090505060016000808681526020019081526020016000206004015401600080868152602001908152602001600020600401819055508291505092915050565b6000600254905090565b6060808390506060839050606081518351016040519080825280601f01601f191660200182016040528015610b435781602001600182028038833980820191505090505b5090506060819050600080905060008090505b8551811015610c09578581815181101515610b6d57fe5b9060200101517f010000000000000000000000000000000000000000000000000000000000000090047f0100000000000000000000000000000000000000000000000000000000000000028383806001019450815181101515610bcc57fe5b9060200101907effffffffffffffffffffffffffffffffffffffffffffffffffffffffffffff1916908160001a9053508080600101915050610b56565b5060008090505b8451811015610cc3578481815181101515610c2757fe5b9060200101517f010000000000000000000000000000000000000000000000000000000000000090047f0100000000000000000000000000000000000000000000000000000000000000028383806001019450815181101515610c8657fe5b9060200101907effffffffffffffffffffffffffffffffffffffffffffffffffffffffffffff1916908160001a9053508080600101915050610c10565b50819550505050505092915050565b600080600080600160008154809291906001019190505581526020019081526020016000209050338160000160006101000a81548173ffffffffffffffffffffffffffffffffffffffff021916908373ffffffffffffffffffffffffffffffffffffffff1602179055506000816004018190555083816001019080519060200190610d5e929190610ec3565b50600254816002018190555082816003019080519060200190610d82929190610ec3565b506001600254016002819055507f64a55044d1f2eddebe1b90e8e2853e8e96931cefadbfa0b2ceb34bee360619416001600254036040518082815260200191505060405180910390a1600191505092915050565b60606040805190810160405280600c81526020017f48656c6c6f20576f726c64210000000000000000000000000000000000000000815250905090565b604080519081016040528060608152602001600073ffffffffffffffffffffffffffffffffffffffff1681525090565b828054600181600116156101000203166002900490600052602060002090601f016020900481019282601f10610e8457805160ff1916838001178555610eb2565b82800160010185558215610eb2579182015b82811115610eb1578251825591602001919060010190610e96565b5b509050610ebf9190610f43565b5090565b828054600181600116156101000203166002900490600052602060002090601f016020900481019282601f10610f0457805160ff1916838001178555610f32565b82800160010185558215610f32579182015b82811115610f31578251825591602001919060010190610f16565b5b509050610f3f9190610f43565b5090565b610f6591905b80821115610f61576000816000905550600101610f49565b5090565b9056fea165627a7a723058206356976962b826cdc2d2c0672e0e5959f4625efce6ba96689e37dd38d0fa36ed0029",
  "source": "// SPDX-License-Identifier: MIT\npragma solidity >=0.4.22 <0.9.0;\n\ncontract SupplyChain {\n    event Added(uint256 index);\n\n    struct State {\n        string description;\n        address person;\n    }\n\n    struct Product {\n        address creator;\n        string productName;\n        uint256 productId;\n        string date;\n        uint256 totalStates;\n        mapping(uint256 => State) positions;\n    }\n\n    mapping(uint256 => Product) allProducts;\n    uint256 numOfItems;\n    uint256 items = 0;\n\n    function concat(string memory _a, string memory _b)\n        public\n        pure\n        returns (string memory)\n    {\n        bytes memory bytes_a = bytes(_a);\n        bytes memory bytes_b = bytes(_b);\n        string memory length_ab = new string(bytes_a.length + bytes_b.length);\n        bytes memory bytes_c = bytes(length_ab);\n        uint256 k = 0;\n        for (uint256 i = 0; i < bytes_a.length; i++) bytes_c[k++] = bytes_a[i];\n        for (uint256 i = 0; i < bytes_b.length; i++) bytes_c[k++] = bytes_b[i];\n        return string(bytes_c);\n    }\n\n    function newItem(string memory _text, string memory _date)\n        public\n        returns (bool)\n    {\n        Product storage p = allProducts[numOfItems++];\n        p.creator = msg.sender;\n        p.totalStates = 0;\n        p.productName = _text;\n        p.productId = items;\n        p.date = _date;\n        items = items + 1;\n        emit Added(items - 1);\n        return true;\n    }\n\n    function addState(uint256 _productId, string memory info)\n        public\n        returns (string memory)\n    {\n        require(_productId <= items);\n        State memory newState = State({person: msg.sender, description: info});\n        allProducts[_productId].positions[\n            allProducts[_productId].totalStates\n        ] = newState;\n        allProducts[_productId].totalStates =\n            allProducts[_productId].totalStates +\n            1;\n        return info;\n    }\n\n    function searchProduct(uint256 _productId)\n        public\n        view\n        returns (string memory)\n    {\n        require(_productId <= items);\n        string memory output = \"Product Name: \";\n        output = concat(output, allProducts[_productId].productName);\n        output = concat(output, \"<br>Manufacture Date: \");\n        output = concat(output, allProducts[_productId].date);\n\n        for (uint256 j = 0; j < allProducts[_productId].totalStates; j++) {\n            output = concat(output, \"<br>Warehouse Location: \");\n            output = concat(\n                output,\n                allProducts[_productId].positions[j].description\n            );\n        }\n        return output;\n    }\n\n    function sayHello() public pure returns (string memory) {\n        // dummy function for checking blockcahin.\n        return \"Hello World!\";\n    }\n\n    function getProductId() public view returns (uint256) {\n        return items;\n    }\n\n    constructor() public {}\n}\n",
  "sourcePath": "/home/hyperloop/dev/ether-flask/_agistic/client/src/contracts/SupplyChain.sol",
  "compiler": {
    "name": "solc",
    "version": "0.5.0+commit.1d4f565a.Emscripten.clang"
  },
  "schemaVersion": "3.0.1",
  "updatedAt": "2021-07-16T06:16:40.581Z",
  "devdoc": {
    "methods": {}
  },
  "userdoc": {
    "methods": {}
  }
}